:100000000C94D2060C94FA060C94FA060C94FA0698
:100010000C94FA060C94FA060C94FA060C94FA0660
:100020000C94FA060C94FA060C94FD0B0C946C0CD0
:100030000C94FA060C94FA060C94FA060C94FA0640
:100040000C94FA060C94480F0C94FA060C94FA06D9
:100050000C94FA060C94FA060C94FA060C949E0E74
:100060000C94FA060C94FA060C94FA060C94FA0610
:100070000C94FA060C94FA060C94FA060C94FA0600
:100080000C94E80E0C94FA060C94FA060C94FA06FA
:100090000C94FA060C94FA060C94FA060C94FA06E0
:1000A0000C94FA060C94FA060C94FA060000000070
:1000B000003E5B4F5B3E3E6B4F6B3E1C3E7C3E1CEE
:1000C000183C7E3C181C577D571C1C5E7F5E1C0034
:1000D000183C1800FFE7C3E7FF0018241800FFE7EB
:1000E000DBE7FF30483A060E2629792926407F05AE
:1000F0000507407F05253F5A3CE73C5A7F3E1C1CC4
:1001000008081C1C3E7F14227F22145F5F005F5F83
:1001100006097F017F006689956A6060606060946F
:10012000A2FFA29408047E040810207E2010080874
:100130002A1C08081C2A08081E101010100C1E0C7F
:100140001E0C30383E3830060E3E0E060000000011
:100150000000005F00000007000700147F147F14F8
:10016000242A7F2A1223130864623649562050003D
:1001700008070300001C2241000041221C002A1C29
:100180007F1C2A08083E0808008070300008080814
:100190000808000060600020100804023E51494534
:1001A0003E00427F400072494949462141494D3352
:1001B0001814127F1027454545393C4A49493141B9
:1001C000211109073649494936464949291E000087
:1001D00014000000403400000008142241141414DC
:1001E0001414004122140802015909063E415D59C8
:1001F0004E7C1211127C7F494949363E41414122D1
:100200007F4141413E7F494949417F090909013EFA
:10021000414151737F0808087F00417F4100204021
:10022000413F017F081422417F404040407F021C33
:10023000027F7F0408107F3E4141413E7F0909094A
:10024000063E4151215E7F09192946264949493216
:1002500003017F01033F4040403F1F2040201F3FDC
:100260004038403F63140814630304780403615961
:10027000494D43007F4141410204081020004141A3
:10028000417F04020102044040404040000307084F
:100290000020545478407F2844443838444444284B
:1002A000384444287F385454541800087E090218F2
:1002B000A4A49C787F0804047800447D400020407A
:1002C000403D007F1028440000417F40007C0478BE
:1002D00004787C080404783844444438FC18242406
:1002E0001818242418FC7C08040408485454542486
:1002F00004043F44243C4040207C1C2040201C3C03
:100300004030403C44281028444C9090907C4464F9
:10031000544C44000836410000007700000041368C
:10032000080002010204023C2623263C1EA1A16112
:10033000123A4040207A3854545559215555794144
:100340002154547841215554784020545579400C1B
:100350001E527212395555555939545454593955FC
:100360005454580000457C410002457D420001453F
:100370007C40F0292429F0F0282528F07C545545AC
:10038000002054547C547C0A097F4932494949323F
:100390003248484832324A4848303A4141217A3A54
:1003A00042402078009DA0A07D39444444393D401E
:1003B00040403D3C24FF2424487E4943662B2FFCCB
:1003C0002F2BFF0929F620C0887E09032054547979
:1003D000410000447D413048484A32384040227A4A
:1003E000007A0A0A727D0D19317D2629292F2826C7
:1003F0002929292630484D402038080808080808CF
:100400000808382F10C8ACBA2F102834FA00007B27
:10041000000008142A142222142A1408950022002D
:1004200095AA005500AAAA55AA55AA000000FF00E7
:10043000101010FF00141414FF001010FF00FF1024
:1004400010F010F0141414FC001414F700FF000056
:10045000FF00FF1414F404FC141417101F10101FD5
:10046000101F1414141F00101010F0000000001FC3
:10047000101010101F10101010F010000000FF10CE
:100480001010101010101010FF10000000FF1400CA
:1004900000FF00FF00001F10170000FC04F41414FC
:1004A0001710171414F404F40000FF00F7141414C8
:1004B00014141414F700F7141414171410101F1048
:1004C0001F141414F4141010F010F000001F101F6B
:1004D0000000001F14000000FC140000F010F010D9
:1004E00010FF10FF141414FF141010101F00000050
:1004F00000F010FFFFFFFFFFF0F0F0F0F0FFFFFF54
:100500000000000000FFFF0F0F0F0F0F38444438AA
:10051000447C2A2A3E147E02020606027E027E02E5
:1005200063554941633844443C04407E201E200604
:10053000027E020299A5E7A5991C2A492A1C4C7241
:1005400001724C304A4D4D303048784830BC625AC8
:10055000463D3E494949007E0101017E2A2A2A2A58
:100560002A44445F444440514A444040444A514034
:100570000000FF0103E080FF000008086B6B0836F5
:1005800012362436060F090F060000181800000066
:100590001010003040FF0101001F01011E00191D55
:1005A0001712003C3C3C3C00000000000000000032
:1005B000240027002A002D00300000000000250044
:1005C00028002B002E00310004080201104080405A
:1005D0001020408040800802040180402010020169
:1005E0001080102040402004040404040304050289
:1005F00002020204030202020206060606060604BE
:1006000004020202040406011501260137014A0111
:100610005D01720188019F01B801D201EE010B0258
:100620002A024B026E029302BA02E40210033F0355
:100630007003A403DC03170455049704DD042705A5
:100640007505C80520067D06E0064907B8072D0890
:10065000A9082D09B9094D0AEA0A900B400CFA0CB9
:10066000C00D910E6F0F5A1053115B1272139A1432
:10067000D41520178018F519801B231DDE1EB42009
:10068000A622B524E4263429A72B402E0031EA33D4
:100690000037453ABC3D68414C456B49C84D6852EE
:1006A0004F57805C006210111213151617181A1C90
:1006B0001D1F21232527292C2E3134373A3E414551
:1006C000494E52575C62686E757B838B939CA5AFD5
:1006D000B9C4D0DCE9F7F0F89C8E8783878E9CF84C
:1006E000F00000FEFF0303030303070EFCF8000005
:1006F000FEFF0303030303070EFCF80000FFFF00E7
:10070000000000000000FFFF0000FEFF83838383E2
:1007100083C7EE7C380000F8FC0E07030303070EC6
:10072000FCF800003F7FE0C08080C0E07F3FFFFF1B
:1007300001010101010101FFFF0000FFFF0C0C0C92
:100740000C1C3E77E3C100007FFFC0C0C0C0C0E00A
:10075000703F1F00001F3F70E0C0C0C0E0703F1F2F
:1007600000007FFFC1C1C1C1C1E3773E1C00001F73
:100770003F70E0C0C0C0E0703F1F000000000001FB
:10078000FFFF01000000D5F08D14A1C881CFD9F181
:10079000AF2000904300A2800068904301C5800113
:1007A0000B904300BA800145904300DC800EE59039
:1007B0004300A28000FF9043015C8000C59043008D
:1007C0008B80032D904300D1800296904300D1800E
:1007D000004590430068800CA0904300FF800045D6
:1007E000904300F480045C90430097800074904331
:1007F00001518000E89043002E8000459043007432
:100800008000459043005D8000519043002E801889
:100810002A904300AE800051904300FF8001B990C0
:1008200043010B80003A90430239914A00C5810090
:10083000BA8000749043017480084F904000F480A7
:1008400000AE9040029680025190400174801835AD
:10085000904300E880006890430439914A005D812C
:100860000097914A00978100AE80005D904300514F
:10087000914A007F81004580000B904A00519143CE
:100880000068800051904A003A8100748000AE9068
:100890004300AE914A00178000459043002E81002E
:1008A0007F800122904A008B800051904300688035
:1008B00001229043005D800EF1904300AE8001451F
:1008C000904301178000BA904300E8914A00C58127
:1008D0000350800097904301228001519043003AD9
:1008E000914A007481005D8000BA9043008B914A68
:1008F00000978102968001A290430296800C159089
:1009000040015C800068904000AE8000C5904003CC
:1009100045914700F481018B8000689040002E9142
:100920004700688101459148002E8100519148009F
:10093000518101DC914801688000178100229040BC
:100940000074800A439048000B91460017923F00C4
:10095000A28001D1810068904600C5820068913F65
:1009600000AE8100D1913F0068800051904601B9EE
:100970008000D1904800178100518000C5903F0051
:10098000C580008B903F0068800DB7903F01F480D8
:1009900000179048005D913F00519246007F800013
:1009A000518201229046002E92480074808202FFFC
:1009B00081002E903F027F800017903F008B8000C7
:1009C00074904100FF800074904100F480010B900E
:1009D00041010B800068904100A2914600DC80003C
:1009E0001790480017924100688100458000C5902B
:1009F00046007F9148002280010B81002E90480024
:100A0000519146002280000B82003A9041002281E1
:100A100002969148017F8100A28000FF904100680A
:100A200080007F904101518004AD9048002E914399
:100A3000002E8000519048002E81002E914300220C
:100A400080005D90488100519143000B80005D90D3
:100A5000480045800068904800458003508100BAF6
:100A60009043020B800097904300A280085B904166
:100A700000F48000F49041019680005D90410145B2
:100A8000800045904101399148000B80002290413F
:100A900000AE81008B914801178000749041000BDB
:100AA000810045914802688000519041018B81008E
:100AB000179148032D810045914800BA8101459165
:100AC00048008B8100F49148005D8100178000226E
:100AD0009041003A9148003A8100F49148005D80CD
:100AE00081005D904101748000FF9041007480019D
:100AF0000B903F00F4800122903F01AE9146012E01
:100B00008100DC80000B904600F4913F00A2800041
:100B1000D190460045810068913F007F800017908A
:100B200048003A9246000B8000D19048002E820087
:100B30007F9246000B8002459048008B8000178111
:100B40000051903F00228200978000E8903F01DC36
:100B5000800CCF9043007F914800A281008B914A86
:100B6000012280001781007F9043914A007F80001E
:100B70002281001790430117914A00458000178198
:100B80000045904301B980102B904301F48001C5CA
:100B9000904303C58000A29043008B914800518090
:100BA0000074904300F48000DC904300978000685C
:100BB000904302B981003A80008B9043007F80000F
:100BC000DC904301228000689043015C80045C90CB
:100BD000470022904801B9914000A28100E88000BE
:100BE0003A904800748000F4904700D1914000454D
:100BF00080005D904700F480014581000B90480023
:100C00005D8000519048005D8000689048002E8013
:100C100000DC904000978000DC9040007F800BDA81
:100C2000903F00A28000E8903F01749148007492C8
:100C300046001781007F82022E800068903F00AE40
:100C40009148007F81003A914800A2810145914678
:100C5000006881018B9146007480001781003A90F2
:100C60003F0151914600A281004580012E903F0234
:100C700096800074903F01A28000E89046018B802E
:100C8000017490460022913E0022810068913E014D
:100C90008B810074913E00DC81002E8000A2904682
:100CA00000C580001790460051913E00518100FF21
:100CB000913E00F480006881003A9046002E913EFB
:100CC000009780000B810A2190430145913C012E41
:100CD0008000D1904300978000BA90430051800477
:100CE0003990430022810074913C00D1800097909C
:100CF0004301B980008B9043006880810045904398
:100D0000002E80025190430068800D94904300AE05
:100D10008000BA904300D18000459043015C80017F
:100D2000AE904300AE80007F904300AE80022290E0
:100D300043006880F0080B00020202000009040072
:100D40000001020200000524001001052401010138
:100D50000424020605240600010705810310004053
:100D600009040100020A0000000705020240000019
:100D7000070583024000000403090412010002EF8A
:100D800002014041233680000101020301417264E7
:100D900075696E6F204C4C430041726475626F79C7
:100DA0000000EC0F11241FBECFEFDAE0DEBFCDBF95
:100DB00011E0A0E0B1E0E6E9F6E202C005900D9294
:100DC000AC34B107D9F725E0ACE4B1E001C01D9225
:100DD000A83EB207E1F716E0C2EDD6E004C02197C5
:100DE000FE010E944313C13DD107C9F70E940F10B5
:100DF0000C9449130C94000080914D010895E2E990
:100E0000F1E0A0E0B8E000800EBC8111012C119748
:100E1000A0FDFDCF0192B9F70DB40895FC018091BA
:100E20009101882311F13FB7F89482E08093E900A3
:100E30002091F200822F90E01816190614F481E038
:100E400090E0882339F0289844E64093900140913F
:100E5000F1004083222339F02091F200211103C0D8
:100E60002BE62093E8003FBF08958FEF9FEF089592
:100E70002FB7F89483E08093E9009091E800892FE0
:100E8000807295FF04C09091F20080E4891B2FBF0F
:100E900008958091880181110DC082E080938401C2
:100EA00084E080938501109287011092860181E091
:100EB0008093880184E891E00895CF93DF931F9297
:100EC000CDB7DEB76983DC01ED91FC910280F3813F
:100ED000E02D41E050E0BE016F5F7F4F09950F901C
:100EE000DF91CF91089583E08093E9008091F20033
:100EF000882319F08AE38093E80008950E94380758
:100F000090E00895CF93DF931F92CDB7DEB7FC0139
:100F10008485958597FD08C02FEF3FEF358724879F
:100F20000F90DF91CF910895CE0101960E940E0798
:100F3000019719F4898190E0F3CF8FEF9FEFF0CF05
:100F40000F931F93CF93DF931F92CDB7DEB78C0122
:100F5000FC018485958597FF0BC0CE0101960E9408
:100F60000E07019771F4898190E0F80195878487D5
:100F7000F801848595850F90DF91CF911F910F9196
:100F800008958FEF9FEFF1CFFC018485958597FD44
:100F90000BC09FB7F89482E08093E9008091F20043
:100FA0009FBF90E0019608959FB7F89482E08093E8
:100FB000E9008091F2009FBF90E0089540917E018A
:100FC00050917F0120917C0130917D0142175307A0
:100FD000B4F49091E8009570E1F39091E80092FDEF
:100FE00019C08093F10080917E0190917F0101965C
:100FF0008F739927892B19F48EEF8093E8008091E5
:101000007E0190917F01019690937F0180937E01F4
:1010100081E0089580E00895DF92EF92FF920F93B0
:101020001F93CF93DF93D82E8A01EB017B01E40E4F
:10103000F51ECE15DF0559F0D7FE12C0FE018491D2
:101040000E94DE0721968111F4CF0FEF1FEFC80138
:10105000DF91CF911F910F91FF90EF90DF90089556
:101060008881EECF0F931F93CF93DF931F92CDB75D
:10107000DEB782E0898342E450E065E37DE080E80A
:101080000E940C080E944907DC0112960D911C91E8
:101090000115110589F0D801ED91FC910280F381D1
:1010A000E02DBE016F5F7F4FC801099597FD04C019
:1010B000F80100851185ECCF89810F90DF91CF91E8
:1010C0001F910F910895615030F02091F100FC01C3
:1010D00020830196F8CF289884E6809390010895A4
:1010E000AF92BF92CF92DF92EF92FF920F931F9336
:1010F000CF93DF936C017B018B01040F151FEB0174
:101100005E01AE18BF08C017D10759F06991D6012A
:10111000ED91FC910190F081E02DC6010995892B9C
:1011200079F7C501DF91CF911F910F91FF90EF905B
:10113000DF90CF90BF90AF9008953FB7F894809123
:10114000670190916801A0916901B0916A0126B58B
:10115000A89B05C02F3F19F00196A11DB11D3FBFEF
:10116000BA2FA92F982F8827BC01CD01620F711DBE
:10117000811D911D42E0660F771F881F991F4A95B8
:10118000D1F708958F929F92AF92BF92CF92DF9244
:10119000EF92FF926B017C010E949D084B015C0164
:1011A000C114D104E104F104B9F00E949D0868194A
:1011B00079098A099B09683E73408105910580F38E
:1011C00021E0C21AD108E108F10888EE880E83E018
:1011D000981EA11CB11CE4CFFF90EF90DF90CF9040
:1011E000BF90AF909F908F9008958F929F92AF92F3
:1011F000BF92CF92DF92EF92FF920F931F93CF9304
:10120000DF936C017B018A0180910D01882309F431
:101210005CC080919101882309F457C080918301BB
:1012200080FF05C08091E00082608093E000E801CB
:10123000B12C8AEFA82E93E0892E2AE3922E2097D4
:1012400011F4BB20D9F10E94380781110AC0AA9479
:10125000AA20D9F161E070E080E090E00E94C2082D
:10126000EECF8C171D0611F00CF08C2F9FB7F89461
:101270008092E9002091E80025FD02C09FBFDFCFEA
:10128000282F30E0C21BD30BF701815020F0419191
:101290004093F100FACFE20EF31EBB2021F09092B2
:1012A000E800B12CEBCF8091E80085FDE7CF90926C
:1012B000E800BB24B394209709F3F3CF5D9884E64C
:1012C00080938201101611063CF081E090E0F60157
:1012D0009383828310E000E0C801DF91CF911F91DA
:1012E0000F91FF90EF90DF90CF90BF90AF909F90C5
:1012F0008F900895CF92DF92EF92FF921F93CF933A
:10130000DF93E82FF0E0E25FFE4F1081E62FF0E080
:10131000603398F5EA55F94FE491CE2FD0E0F12CE7
:10132000E12C60E074E284EF90E0A7019E010E944E
:10133000F312215031094109510991E0211531057C
:1013400081E0480751056CF060E970ED83E090E0C2
:10135000A7019E010E94F312215031094109510950
:1013600093E0113089F0133039F1DF91CF911F9163
:10137000FF90EF90DF90CF900895EE0FFF1FEA559A
:10138000FA4FC591D491CBCF809165018111EDCFFA
:1013900080918100887F892B809381003093890020
:1013A00020938800109285001092840080916F0035
:1013B000826080936F00D9CF80919100887F892BC4
:1013C000809391003093990020939800109295009B
:1013D00010929400D0936401C093630181E08093E4
:1013E000620180917100826080937100BECFE82F0E
:1013F000F0E0E25FFE4F8081813019F08330A9F088
:1014000008958091650181110FC080916F008D7FDB
:1014100080936F0080915401E0915201F09153014B
:101420009081809589238083089510926201809134
:1014300061018111F9CF80915F01E0915D01F0912F
:101440005E01EECFCF93DF93D1E0E0917301F09195
:101450007401AF014F5F5F4F50937401409373016C
:101460002491822F807FC22FCF70803821F48C2F5F
:101470000E94F709EACF803919F5E091E205F09171
:10148000E30509958D2780936001E0917301F09148
:101490007401CF010196909374018093730164915C
:1014A00080915101C81788F6C13021F48091500114
:1014B0008111CBCF67FDC9CF8C2F0E947A09C5CF90
:1014C00087FD3CC03296F0937401E0937301FA01FA
:1014D0004491A0916301B0916401322F242F0E94A6
:1014E00034136C507E4F8F4F9F4F28EE33E040E017
:1014F00050E00E9412132093590130935A014093F7
:101500005B0150935C018091590190915A01A09127
:101510005B01B0915C01892B8A2B8B2B61F481E0FC
:1015200090E0A0E0B0E08093590190935A01A0931D
:101530005B01B0935C01DF91CF910895803E49F447
:10154000809175019091760190937401809373015D
:101550007CCF803F09F079CF10927701ECCF90914A
:101560005101923009F471C0292F30E0F901E25F96
:10157000FE4F4081225B3E4FF9018083913031F470
:1015800020914E01281302C0909350019F5F9093C9
:10159000510190E0FC01E951FA4F249188539A4F90
:1015A000FC01849130E0220F331FF901E654FA4F19
:1015B00065917491F901E455FA4FA591B4919C910C
:1015C000982B9C93413019F04330D9F008959091B5
:1015D0006400977F909364001092800010928100C5
:1015E000909181009860909381009091810091602A
:1015F0009093810070935301609352018093540142
:10160000089590916500977F9093650010929000E7
:101610001092910090919100986090939100909118
:10162000910091609093910070935E0160935D01D1
:1016300080935F0180915101882321F06CE380E069
:101640000E947A0980E00C94F70908952D9A089574
:10165000BC0190E080E00C94C2088FB18095807F3F
:10166000669B88601C9B8460089510924D013E9893
:101670003F9808953E9A3F9A81E080934D010895E6
:101680002F923F924F925F926F927F928F929F9292
:10169000AF92BF92CF92DF92EF92FF920F931F9380
:1016A000CF93DF9300D01F92CDB7DEB76D30D1F06E
:1016B000209100012983C0907A01D0907B01822F74
:1016C00090E06A3039F5109279011092780143E088
:1016D000880F991F4A95E1F7C80ED91ED0927B0159
:1016E000C0927A0181E090E00F900F900F90DF910F
:1016F000CF911F910F91FF90EF90DF90CF90BF900F
:10170000AF909F908F907F906F905F904F903F90A1
:101710002F90089520917801309179013B832A839D
:1017200035E0639FF0011124E455FF4F0A811B81CE
:1017300040E030E1832E912C453029F09F012F5F4E
:101740003F4F9490F901560128E0722E592D5170A7
:10175000552EB801662E262F201B3981231760F5E0
:10176000F12CE12C5981E51620F560387105D0F493
:1017700095012E0D3F1D20343105A0F451E021FDCF
:1017800054E020FD550F22FD5295287F829ED00106
:101790001124A60D452EAE56BE4F2C91552031F08A
:1017A000252B2C93AFEFEA1AFA0ADCCF40942421C0
:1017B000F8CF6F5F7F4FCECF96947A94A80EB91E64
:1017C0007110C4CF4F5F080F191F463009F0B3CF17
:1017D0002A813B815981549F200D311D1124309362
:1017E0007901209378017ECF80E00C94FF06089564
:1017F00090E080E008950C94DD121F920F920FB6D6
:101800000F9211248F939F938091E1009091E100BA
:10181000937F9093E10083FF0FC01092E90091E065
:101820009093EB001092EC0092E39093ED001092F5
:10183000910198E09093F00082FF22C093E0909392
:10184000E9009091F200992319F09AE39093E8004F
:1018500090918201992341F090918201915090934F
:101860008201911101C05D9A90919001992341F0FC
:1018700090919001915090939001911101C0289AFC
:1018800084FF18C08091E2008E7E81608093E20028
:101890008091E1008F7E8093E100809183018E7EB4
:1018A0008061809383019F918F910F900FBE0F9065
:1018B0001F90189580FFF7CF8091E2008E7E8061A7
:1018C0008093E2008091E1008E7E8093E100809120
:1018D00083018E7E8160E5CF1F920F920FB60F922B
:1018E0001124CF92DF92EF92FF920F931F932F93C9
:1018F0003F934F935F936F937F938F939F93AF9398
:10190000BF93EF93FF93CF93DF93CDB7DEB76C9781
:10191000DEBFCDBF1092E9008091E80083FF25C0B3
:1019200068E0CE0145960E94630882EF8093E8004C
:101930008D8987FF39C09091E80090FFFCCF982FE8
:10194000907609F034C19E894F89588D2F89F88C83
:10195000911131C0803861F5809181018093F1004F
:101960001092F1008EEF8093E8006C960FB6F89419
:10197000DEBF0FBECDBFDF91CF91FF91EF91BF9141
:10198000AF919F918F917F916F915F914F913F9117
:101990002F911F910F91FF90EF90DF90CF900F90BC
:1019A0000FBE0F901F9018959EEF9093E800C7CF41
:1019B0001092F100D5CF913059F48111D3CF41303D
:1019C000510581F6809181018D7F80938101CACF7D
:1019D000933049F48111C6CF4130510519F68091F9
:1019E00081018260F2CF953041F48091E80080FF60
:1019F000FCCF20682093E300B5CF963009F0A9C052
:101A00000B8D1C8D22E01092E90010927F01109244
:101A10007E01F2122EC010927D0110927C010E9474
:101A200032081F8299E09983FA8291E09E8390EABE
:101A300098879AEF998720917E0130917F01275FE7
:101A40003F4F3C832B838D831092E90010927F01DE
:101A500010927E0110937D0100937C0149E050E0DB
:101A6000BE016F5F7F4F80E00E940C080E94320829
:101A700079CF10937D0100937C010E944907DC011E
:101A800012960D911C910115110509F451C1D8014F
:101A9000ED91FC910480F581E02DBE016B5E7F4FDE
:101AA000C8010995009709F03EC1F801008511852C
:101AB000EACFF3E0FF120EC08F89882309F440C0FB
:101AC000823061F440E867E089E99DE00E94B90F47
:101AD000811148CF81E28093EB0047CF813029F418
:101AE00040E86BE08DE89DE0F1CF833099F70E94EC
:101AF0004907DC011296ED90FC908E010F5F1F4F9D
:101B00006801E114F10479F0D701ED91FC910680B0
:101B1000F781E02DB801C7010995080F111DF701E4
:101B2000E084F184EECFD8011C92F60101900020F0
:101B3000E9F73197BF016C197D0940E0C601C6CFB6
:101B400067E77DE0FB01449150E080E80E940C08CB
:101B500009CF973009F4BECF983021F481E080930B
:101B6000F10000CF993009F0FDCE837009F0B2CFBB
:101B7000E1E1F1E081E031E096E32191222371F08F
:101B80008093E9003093EB00DF0111972C912093B3
:101B9000EC009093ED008F5F873079F78EE78093AC
:101BA000EA001092EA008F8980939101DBCE8B8D41
:101BB0009C8D1092E90010927F0110927E0190930B
:101BC0007D0180937C01898D811192C08E899D89D0
:101BD000913A49F4813209F07DCF47E050E066E068
:101BE00071E080E0B3CF913209F074CF833269F4B1
:101BF0008F89988DB0E0A0E080930201909303015B
:101C0000A0930401B0930501ADCE803269F48091B8
:101C1000E80082FFFCCF67E086E091E00E94630865
:101C20008BEF8093E8009ECE823209F09BCE8F89A5
:101C300080930D01EEEFFFE7859194918B3F9C4DD2
:101C400051F1E0E0F8E08091060190910701A09148
:101C50000801B0910901803B9440A105B105F1F460
:101C600080910D0180FD1AC0EE3F8AE0F80789F5EA
:101C700087E797E79183808380916000809380015C
:101C800088E19BE00FB6F894A895809360000FBEA2
:101C90009093600067CEEEEFFAE0D5CF808191811E
:101CA0008737974709F05ECEA895809160008861DC
:101CB000809360008091800180936000EE3F2AE075
:101CC000F20789F08091FE0A9091FF0A9183808348
:101CD00049CE808191818737980751F29093FF0A0E
:101CE0008093FE0AC5CF1092FF0A1092FE0A3ACEE8
:101CF0000E944907DC0112960D911C9101151105F6
:101D000009F4E8CED801ED91FC910190F081E02D2D
:101D1000BE016B5E7F4FC8010995811123CEF8018A
:101D200000851185EBCF181619060CF41BCED2CE08
:101D3000F1E0FF12BECE6BE77DE004CF1F920F9261
:101D40000FB60F9211242F933F938F939F93AF93CE
:101D5000BF9380916B0190916C01A0916D01B09146
:101D60006E013091660123E0230F2D3758F501965F
:101D7000A11DB11D2093660180936B0190936C01AE
:101D8000A0936D01B0936E018091670190916801FD
:101D9000A0916901B0916A010196A11DB11D8093C6
:101DA000670190936801A0936901B0936A01BF91A4
:101DB000AF919F918F913F912F910F900FBE0F90F8
:101DC0001F90189526E8230F0296A11DB11DD2CFB2
:101DD0001F920F920FB60F9211242F933F934F93A0
:101DE0005F936F937F938F939F93AF93BF93EF9383
:101DF000FF9380916201882389F0809161018111B4
:101E00000DC080916001811109C090915F01E09146
:101E10005D01F0915E018081892780838091770147
:101E2000882329F18091590190915A01A0915B0179
:101E3000B0915C01892B8A2B8B2BC9F080915901C1
:101E400090915A01A0915B01B0915C010197A109A9
:101E5000B1098093590190935A01A0935B01B0930B
:101E60005C01892B8A2B8B2B11F40E94220AFF9193
:101E7000EF91BF91AF919F918F917F916F915F9102
:101E80004F913F912F910F900FBE0F901F9018957B
:101E90001F920F920FB60F9211248F939F93AF93BF
:101EA000BF93EF93FF9380916501882309F454C099
:101EB0008091550190915601A0915701B091580120
:101EC000892B8A2B8B2BA1F190915401E091520127
:101ED000F0915301808189278083809155019091F1
:101EE0005601A0915701B0915801181619061A060B
:101EF0001B069CF48091550190915601A0915701C9
:101F0000B09158010197A109B109809355019093AF
:101F10005601A0935701B0935801FF91EF91BF91E3
:101F2000AF919F918F910F900FBE0F901F901895BA
:101F3000109261011092650180916F008D7F8093F6
:101F40006F0080915401E0915201F0915301908112
:101F5000809589238083E1CF809160018111DDCF5D
:101F600090915401E0915201F091530180818927B1
:101F7000F1CFEF92FF920F931F93CF93DF93F82E41
:101F8000192FE62E042F81E0860F880F0E94DE07AE
:101F900083E00E94DE07CF2DD12FEC0EFD2EF11C29
:101FA000CE15DF05B9F007FF13C0FE0184910E9432
:101FB000DE07182F80E00E94DE0781232196811121
:101FC000EFCFDF91CF911F910F91FF90EF90089588
:101FD0008881EDCF81E0F5CFE2E9F5E0138212824E
:101FE00088EE93E0A0E0B0E084839583A683B78376
:101FF0008BE191E0918380838FEF9FEF95878487BA
:10200000E4EEF5E0138212828DE291E09183808309
:102010008CEF96E09093E3058093E2050895789421
:1020200084B5826084BD84B5816084BD85B58260DD
:1020300085BD85B5816085BD80916E00816080938E
:102040006E001092810080918100826080938100F7
:102050008091810081608093810080918000816007
:1020600080938000809191008260809391008091A4
:1020700091008160809391008091900081608093B5
:1020800090008091C10084608093C1008091C10064
:1020900082608093C1008091C10081608093C10003
:1020A0008091C30081608093C3008091C0008260F2
:1020B0008093C0008091C20081608093C2008091B3
:1020C0007A00846080937A0080917A0082608093A5
:1020D0007A0080917A00816080937A0080917A0002
:1020E000806880937A001092910110928101109281
:1020F00083018091D70081608093D70080EA80932C
:10210000D80089B5806189BD89B5826089BD09B46F
:1021100000FEFDCF61E070E080E090E00E94C20828
:102120008091D8008F7C80618093D8008091E000FE
:10213000807F8093E0008091E1008E7E8093E100BB
:102140008DE08093E200559A209A81EC80937C0088
:1021500085B1806F85B984B1877E84B984B1876E7B
:1021600084B95E9A5F988AB1806D8AB9769A6E98C2
:1021700081B3806F81BB899880B38D7080BB80E50F
:102180008CBD81E08DBD85E090E00E94280B5F9AB8
:1021900085E090E00E94280B5E985C98E6E8F7E006
:1021A00083E997E024912EBD00000DB407FEFDCF1A
:1021B00031968E179F07B1F75C9A81E8809364008F
:1021C000809165008160809365000E94F40B0E94FD
:1021D0002D0B87FF15C05C9885EA8EBD00000DB4FD
:1021E00007FEFDCF5C9A2E982F982D988091640061
:1021F00080628093640081E083BF889513BEFCCF2A
:102200000E942D0B82FF48C02D980E942D0B8478D0
:102210008438E1F40E94260B88EC90E00E94280BA1
:102220002F9882E090E00E94DD128F3F29F06FEF3F
:1022300082E090E00E94E51284EF91E00E94280B7A
:102240002F9A0E942D0B84788438D9F30E942D0B8D
:1022500084718431E1F40E94260B88EC90E00E94A6
:10226000280B2E9882E090E00E94DD12882329F04E
:1022700060E082E090E00E94E51284EF91E00E942D
:10228000280B2E9A0E942D0B84718431D9F388EC8F
:1022900090E00E94280BB4CF0E94260B82E090E0D1
:1022A0000E94FB0B882309F45BC00E943A0B81E07B
:1022B00090E00E94FB0B482F4470942E81FF10C0C9
:1022C00041112E98C1EFDFEF08E010E078E5872E8E
:1022D0000E942D0B86FF47C02E9A2F9A0E94260B34
:1022E00082E390E00E94280B0E942D0B8111F8CF11
:1022F00088E28093010181E08093000185E00E94E3
:10230000AF0A8DE00E94AF0A88248394712C82E981
:10231000C82E81E0D82E90E0E92E90E0F92E992485
:102320009394C4E1D0E02AE0A22EB12C03E917E097
:102330008FB7F89440916B0150916C0160916D01E1
:1023400070916E018FBF80917101882309F4CCC018
:1023500010927101E114F10459F30E940000E8CFDA
:102360000E94350BA4CF992029F0C430D10511F477
:102370002E9A2F9881E00E94FF069E01D7FF04C08D
:10238000222733272C1B3D0B27703327CE01D7FD87
:10239000079663E0959587956A95E1F7D7FF05C0A5
:1023A0000197F801E21BF30B9F01BC017695762F94
:1023B0006627779567956E567E4FF12CE12C380194
:1023C000621A730A8E3FFFEF9F0709F43DC08E9C8F
:1023D000D0018F9CB00D112450E040E0AA52B94FBB
:1023E0005B01E0E8AE0EB11C8F3F980791F0FD0154
:1023F000E40FF51FE4916B01C40ED51EF0E02F0130
:10240000022E01C0440C0A94EAF7F60154884528CC
:10241000448A2115310599F0FD01E40FF51FE4917F
:102420006501C40ED51EF0E02F01062C02C05594A4
:1024300047940A94E2F7F60154884528448A4F5F8E
:102440005F4F4835510581F6019660587F4FEA94F9
:10245000EF2809F045C00E94F40B8FE090E00E9445
:10246000280B2196C931D10509F032CF992011F0FE
:102470002F9A2D9880E991E00E94280B0E94260B4C
:1024800081E090E00E94FB0B80FF2ACF8AE090E081
:102490000E94FB0B9FEF980F9E3F08F021CF22E395
:1024A00030E0309379012093780128E330E03093D5
:1024B0007B0120937A01CBE0D0E0682F84EE95E099
:1024C0000E94400BCE010E94FB0B2196C131D10529
:1024D000A1F70E94F40B88EE93E00E94280B00CF36
:1024E000EE24E394F12C6ECF80917201942F981B0F
:1024F000892F90910101891740F48F5F891708F0A7
:1025000029CF83BE889513BE25CF90927101409349
:10251000720180916F01909170010196909370010A
:1025200080936F010E942D0B83FF40C00E94350BEA
:10253000872DF60181118FEF002481938193819380
:1025400081930394D1F7D0937901C0937801B0922D
:102550007B01A0927A014EE050E065E371E084EEE9
:1025600095E00E947008D0937901C0937801D093D0
:102570007B01C0937A0146E050E064E471E084EEB0
:1025800095E00E9470080E94F40B80917701811100
:10259000E1CE1093760100937501109374010093BE
:1025A00073010E94220A90927701D4CE0E942D0BD3
:1025B00082FFBECF0E943A0BBBCFF999FECF92BDEE
:1025C00081BDF89A992780B50895262FF999FECFF5
:1025D0001FBA92BD81BD20BD0FB6F894FA9AF99A40
:1025E0000FBE01960895052E97FB1EF400940E94DD
:1025F0000A1357FD07D00E94121307FC03D04EF4B4
:102600000C940A1350954095309521953F4F4F4FAC
:102610005F4F089590958095709561957F4F8F4F8E
:102620009F4F0895A1E21A2EAA1BBB1BFD010DC0EE
:10263000AA1FBB1FEE1FFF1FA217B307E407F50772
:1026400020F0A21BB30BE40BF50B661F771F881F4E
:10265000991F1A9469F760957095809590959B01E4
:10266000AC01BD01CF010895A29FB001B39FC0018D
:10267000A39F700D811D1124911DB29F700D811DAE
:102680001124911D0895EE0FFF1F0590F491E02D88
:062690000994F894FFCF4D
:102696000110FFFFFFFF00E1000000000000030142
:1026A60000C18081000000000000005D07F5087E83
:1026B600077307C4078207A00700000000400B70DD
:1026C60008F80BF70B526574726F41726368204409
:0C26D600656D6F0047616473627900005D
:00000001FF
